{
  "_format": "hh-sol-artifact-1",
  "contractName": "Voting",
  "sourceName": "contracts/voting.sol",
  "abi": [
    {
      "inputs": [
        {
          "internalType": "string[]",
          "name": "_candidateNames",
          "type": "string[]"
        }
      ],
      "stateMutability": "nonpayable",
      "type": "constructor"
    },
    {
      "anonymous": false,
      "inputs": [
        {
          "indexed": true,
          "internalType": "uint256",
          "name": "_candidateId",
          "type": "uint256"
        }
      ],
      "name": "VotedEvent",
      "type": "event"
    },
    {
      "inputs": [
        {
          "internalType": "uint256",
          "name": "",
          "type": "uint256"
        }
      ],
      "name": "candidates",
      "outputs": [
        {
          "internalType": "uint256",
          "name": "id",
          "type": "uint256"
        },
        {
          "internalType": "string",
          "name": "name",
          "type": "string"
        },
        {
          "internalType": "uint256",
          "name": "voteCount",
          "type": "uint256"
        }
      ],
      "stateMutability": "view",
      "type": "function"
    },
    {
      "inputs": [],
      "name": "candidatesCount",
      "outputs": [
        {
          "internalType": "uint256",
          "name": "",
          "type": "uint256"
        }
      ],
      "stateMutability": "view",
      "type": "function"
    },
    {
      "inputs": [],
      "name": "getCandidates",
      "outputs": [
        {
          "components": [
            {
              "internalType": "uint256",
              "name": "id",
              "type": "uint256"
            },
            {
              "internalType": "string",
              "name": "name",
              "type": "string"
            },
            {
              "internalType": "uint256",
              "name": "voteCount",
              "type": "uint256"
            }
          ],
          "internalType": "struct Voting.Candidate[]",
          "name": "",
          "type": "tuple[]"
        }
      ],
      "stateMutability": "view",
      "type": "function"
    },
    {
      "inputs": [
        {
          "internalType": "uint256",
          "name": "_candidateId",
          "type": "uint256"
        }
      ],
      "name": "vote",
      "outputs": [],
      "stateMutability": "nonpayable",
      "type": "function"
    },
    {
      "inputs": [
        {
          "internalType": "address",
          "name": "",
          "type": "address"
        }
      ],
      "name": "voters",
      "outputs": [
        {
          "internalType": "bool",
          "name": "",
          "type": "bool"
        }
      ],
      "stateMutability": "view",
      "type": "function"
    }
  ],
  "bytecode": "0x60806040523480156200001157600080fd5b50604051620013133803806200131383398181016040528101906200003791906200039d565b60005b81518110156200008857620000728282815181106200005e576200005d620003ee565b5b60200260200101516200009060201b60201c565b80806200007f9062000456565b9150506200003a565b5050620007cb565b60026000815480929190620000a59062000456565b91905055506040518060600160405280600254815260200182815260200160008152506000806002548152602001908152602001600020600082015181600001556020820151816001019081620000fd9190620006e4565b506040820151816002015590505050565b6000604051905090565b600080fd5b600080fd5b600080fd5b6000601f19601f8301169050919050565b7f4e487b7100000000000000000000000000000000000000000000000000000000600052604160045260246000fd5b620001728262000127565b810181811067ffffffffffffffff8211171562000194576200019362000138565b5b80604052505050565b6000620001a96200010e565b9050620001b7828262000167565b919050565b600067ffffffffffffffff821115620001da57620001d962000138565b5b602082029050602081019050919050565b600080fd5b600080fd5b600067ffffffffffffffff82111562000213576200021262000138565b5b6200021e8262000127565b9050602081019050919050565b60005b838110156200024b5780820151818401526020810190506200022e565b60008484015250505050565b60006200026e6200026884620001f5565b6200019d565b9050828152602081018484840111156200028d576200028c620001f0565b5b6200029a8482856200022b565b509392505050565b600082601f830112620002ba57620002b962000122565b5b8151620002cc84826020860162000257565b91505092915050565b6000620002ec620002e684620001bc565b6200019d565b90508083825260208201905060208402830185811115620003125762000311620001eb565b5b835b818110156200036057805167ffffffffffffffff8111156200033b576200033a62000122565b5b8086016200034a8982620002a2565b8552602085019450505060208101905062000314565b5050509392505050565b600082601f83011262000382576200038162000122565b5b815162000394848260208601620002d5565b91505092915050565b600060208284031215620003b657620003b562000118565b5b600082015167ffffffffffffffff811115620003d757620003d66200011d565b5b620003e5848285016200036a565b91505092915050565b7f4e487b7100000000000000000000000000000000000000000000000000000000600052603260045260246000fd5b7f4e487b7100000000000000000000000000000000000000000000000000000000600052601160045260246000fd5b6000819050919050565b600062000463826200044c565b91507fffffffffffffffffffffffffffffffffffffffffffffffffffffffffffffffff82036200049857620004976200041d565b5b600182019050919050565b600081519050919050565b7f4e487b7100000000000000000000000000000000000000000000000000000000600052602260045260246000fd5b60006002820490506001821680620004f657607f821691505b6020821081036200050c576200050b620004ae565b5b50919050565b60008190508160005260206000209050919050565b60006020601f8301049050919050565b600082821b905092915050565b600060088302620005767fffffffffffffffffffffffffffffffffffffffffffffffffffffffffffffffff8262000537565b62000582868362000537565b95508019841693508086168417925050509392505050565b6000819050919050565b6000620005c5620005bf620005b9846200044c565b6200059a565b6200044c565b9050919050565b6000819050919050565b620005e183620005a4565b620005f9620005f082620005cc565b84845462000544565b825550505050565b600090565b6200061062000601565b6200061d818484620005d6565b505050565b5b8181101562000645576200063960008262000606565b60018101905062000623565b5050565b601f82111562000694576200065e8162000512565b620006698462000527565b8101602085101562000679578190505b62000691620006888562000527565b83018262000622565b50505b505050565b600082821c905092915050565b6000620006b96000198460080262000699565b1980831691505092915050565b6000620006d48383620006a6565b9150826002028217905092915050565b620006ef82620004a3565b67ffffffffffffffff8111156200070b576200070a62000138565b5b620007178254620004dd565b6200072482828562000649565b600060209050601f8311600181146200075c576000841562000747578287015190505b620007538582620006c6565b865550620007c3565b601f1984166200076c8662000512565b60005b8281101562000796578489015182556001820191506020850194506020810190506200076f565b86831015620007b65784890151620007b2601f891682620006a6565b8355505b6001600288020188555050505b505050505050565b610b3880620007db6000396000f3fe608060405234801561001057600080fd5b50600436106100575760003560e01c80630121b93f1461005c57806306a49fce146100785780632d35a8a2146100965780633477ee2e146100b4578063a3ec138d146100e6575b600080fd5b6100766004803603810190610071919061054e565b610116565b005b6100806102a6565b60405161008d919061072c565b60405180910390f35b61009e61041a565b6040516100ab919061075d565b60405180910390f35b6100ce60048036038101906100c9919061054e565b610420565b6040516100dd939291906107c2565b60405180910390f35b61010060048036038101906100fb919061085e565b6104d2565b60405161010d91906108a6565b60405180910390f35b600160003373ffffffffffffffffffffffffffffffffffffffff1673ffffffffffffffffffffffffffffffffffffffff16815260200190815260200160002060009054906101000a900460ff16156101a3576040517f08c379a000000000000000000000000000000000000000000000000000000000815260040161019a9061090d565b60405180910390fd5b6000811180156101b557506002548111155b6101f4576040517f08c379a00000000000000000000000000000000000000000000000000000000081526004016101eb90610979565b60405180910390fd5b60018060003373ffffffffffffffffffffffffffffffffffffffff1673ffffffffffffffffffffffffffffffffffffffff16815260200190815260200160002060006101000a81548160ff0219169083151502179055506000808281526020019081526020016000206002016000815480929190610271906109c8565b9190505550807fe447c5464cb203c1da94b4db8588d3cbf313ce4a489122f6b88e87f465b2810e60405160405180910390a250565b6060600060025467ffffffffffffffff8111156102c6576102c5610a10565b5b6040519080825280602002602001820160405280156102ff57816020015b6102ec6104f2565b8152602001906001900390816102e45790505b5090506000600190505b6002548111610412576000808281526020019081526020016000206040518060600160405290816000820154815260200160018201805461034990610a6e565b80601f016020809104026020016040519081016040528092919081815260200182805461037590610a6e565b80156103c25780601f10610397576101008083540402835291602001916103c2565b820191906000526020600020905b8154815290600101906020018083116103a557829003601f168201915b50505050508152602001600282015481525050826001836103e39190610a9f565b815181106103f4576103f3610ad3565b5b6020026020010181905250808061040a906109c8565b915050610309565b508091505090565b60025481565b600060205280600052604060002060009150905080600001549080600101805461044990610a6e565b80601f016020809104026020016040519081016040528092919081815260200182805461047590610a6e565b80156104c25780601f10610497576101008083540402835291602001916104c2565b820191906000526020600020905b8154815290600101906020018083116104a557829003601f168201915b5050505050908060020154905083565b60016020528060005260406000206000915054906101000a900460ff1681565b60405180606001604052806000815260200160608152602001600081525090565b600080fd5b6000819050919050565b61052b81610518565b811461053657600080fd5b50565b60008135905061054881610522565b92915050565b60006020828403121561056457610563610513565b5b600061057284828501610539565b91505092915050565b600081519050919050565b600082825260208201905092915050565b6000819050602082019050919050565b6105b081610518565b82525050565b600081519050919050565b600082825260208201905092915050565b60005b838110156105f05780820151818401526020810190506105d5565b60008484015250505050565b6000601f19601f8301169050919050565b6000610618826105b6565b61062281856105c1565b93506106328185602086016105d2565b61063b816105fc565b840191505092915050565b600060608301600083015161065e60008601826105a7565b5060208301518482036020860152610676828261060d565b915050604083015161068b60408601826105a7565b508091505092915050565b60006106a28383610646565b905092915050565b6000602082019050919050565b60006106c28261057b565b6106cc8185610586565b9350836020820285016106de85610597565b8060005b8581101561071a57848403895281516106fb8582610696565b9450610706836106aa565b925060208a019950506001810190506106e2565b50829750879550505050505092915050565b6000602082019050818103600083015261074681846106b7565b905092915050565b61075781610518565b82525050565b6000602082019050610772600083018461074e565b92915050565b600082825260208201905092915050565b6000610794826105b6565b61079e8185610778565b93506107ae8185602086016105d2565b6107b7816105fc565b840191505092915050565b60006060820190506107d7600083018661074e565b81810360208301526107e98185610789565b90506107f8604083018461074e565b949350505050565b600073ffffffffffffffffffffffffffffffffffffffff82169050919050565b600061082b82610800565b9050919050565b61083b81610820565b811461084657600080fd5b50565b60008135905061085881610832565b92915050565b60006020828403121561087457610873610513565b5b600061088284828501610849565b91505092915050565b60008115159050919050565b6108a08161088b565b82525050565b60006020820190506108bb6000830184610897565b92915050565b7f596f75206861766520616c726561647920766f7465642e000000000000000000600082015250565b60006108f7601783610778565b9150610902826108c1565b602082019050919050565b60006020820190508181036000830152610926816108ea565b9050919050565b7f496e76616c69642063616e6469646174652e0000000000000000000000000000600082015250565b6000610963601283610778565b915061096e8261092d565b602082019050919050565b6000602082019050818103600083015261099281610956565b9050919050565b7f4e487b7100000000000000000000000000000000000000000000000000000000600052601160045260246000fd5b60006109d382610518565b91507fffffffffffffffffffffffffffffffffffffffffffffffffffffffffffffffff8203610a0557610a04610999565b5b600182019050919050565b7f4e487b7100000000000000000000000000000000000000000000000000000000600052604160045260246000fd5b7f4e487b7100000000000000000000000000000000000000000000000000000000600052602260045260246000fd5b60006002820490506001821680610a8657607f821691505b602082108103610a9957610a98610a3f565b5b50919050565b6000610aaa82610518565b9150610ab583610518565b9250828203905081811115610acd57610acc610999565b5b92915050565b7f4e487b7100000000000000000000000000000000000000000000000000000000600052603260045260246000fdfea26469706673582212206ecb0cf9e1604d1bbce19cd56787d684177c2afff3be3cb2b8265ae71dab1e3464736f6c63430008130033",
  "linkReferences": {},
  "deployedLinkReferences": {}
}